PIC000000002Karima Mansori                                 2948 MONTCLAIRE ST                      SACRAMENTO               CA9582138152024031300000344383        Y        
PIC000000009Leada Omid                                     708 BOWLES ST APT5                      CARMICHAEL               CA9582138152024030600001546781        Y        
PIC000000010Anisa Hazem      Hazem                         4009 MARCONI AVE APT 107                ANTELOPE                 CA9582138152024030800000222290        Y        
PIC000000011Joyce Pennybaker                               5918 CANARY DR                          SACRAMENTO               CA9582138152024031100000001789        Y        
PIC000000012Abida Shail                                    6010 34TH ST APT 910                    NORTH HIGHLANDS          CA9582138152024030800000589012        Y        
PIC000000013Nafish Osmani                                  5325 MARCONI AVENUE APT  55             NORTH HIGHLANDS          CA95821    2024031100000898734        Y        
PIC000000014SUNA  GAFFURI   G                              5310 NICKMAN WAY                        SACRAMENTO               CA9582138152024031100000000124        Y        
